:020000021000EC
:1020000088130020E9390100813A0100813A01007A
:10201000AB8A0100813A0100813A0100813A010056
:10202000813A0100813A0100813A0100813A0100C0
:10203000813A010018280400A5300100813A01000E
:10204000813A0100813A0100813A0100813A0100A0
:10205000813A0100813A0100813A0100813A010090
:10206000813A0100813A0100813A0100813A010080
:10207000C5A70100813A0100813A0100813A0100BF
:10208000813A0100813A0100813A0100813A010060
:10209000813A0100813A0100813A0100813A010050
:1020A000813A0100813A0100813A0100813A010040
:1020B000813A010021EE0300813A010001F803009A
:1020C000B9F70300B5F70300F1EF0300FDF70300D4
:1020D000BDF70300D5F70300C1F7030061F8030063
:1020E000DDD20300A5D4030041F80300813A0100CA
:1020F000F9770100813A0100813A0100813A01003B
:10210000813A0100813A0100813A0100813A0100DF
:10211000813A0100813A0100813A0100813A0100CF
:10212000813A0100813A0100813A0100813A0100BF
:10213000813A0100813A01006D33010059330100F9
:1021400010B5054C237833B9044B13B1044800E0B3
:1021500000BF0123237010BD6C1A00200000000096
:102160009073040008B5034B1BB10349034800E01A
:1021700000BF08BD00000000701A0020907304002A
:10218000A3F5803A704700BF174B002B08BF134BD5
:102190009D46FFF7F5FF00218B460F461348144A72
:1021A000121A2DF026FE0E4B002B00D098470D4B37
:1021B000002B00D098470020002104000D000D489E
:1021C000002802D00C4800E000BF2DF0A7FD200041
:1021D000290000F025FF2DF08DFD00BF0000080054
:1021E0000000000000000000881300206C1A00208E
:1021F00018330020000000000000000008B5094B63
:1022000041F284321A8001F025FA01F025FA064BDA
:102210001B68044A12880549184605F095FB00BF63
:1022200008BD00BFB41A0020641B0020BC220400BB
:1022300000B585B0524B1B78012B40F091800FF018
:102240003BFA034683F00103DBB2002B00F08880E9
:102250004C4B1B78002B40F083804B4B1B881BB2F0
:102260001A464A4B1B889A427ADC01F0F3F901F0D6
:10227000F3F9474B1B684749184605F065FB464B89
:102280001B78053B1946404B1B881BB21A46434B33
:1022900013440A461421012020F048F90390039BBF
:1022A0001A2B33D0039B002B30D0394B1B683C4991
:1022B000184605F049FB364B1B683A49184605F0AD
:1022C00043FB00BF01F0C6F901F0C6F9304B1868B6
:1022D000354B0093CA23354A354905F035FB2C4B65
:1022E0001868039B334A344905F02EFB039801F02C
:1022F00089F9274B1B683149184605F025FB244B0B
:102300001B682749184605F01FFBFEE7039B002BBF
:1023100023D11D4B1B881BB21A461C4B1B889A42AB
:102320000DDB01F097F901F097F9194B1B6824496F
:10233000184605F009FB134B01221A7010E0164BEA
:102340001B789AB2104B1B881BB29BB213449BB2F2
:10235000053B9BB21AB20C4B1A80039B002B8ED00C
:10236000094B1B881BB21A46084B1B889A4202DD98
:10237000054B00221A8000BF05B05DF804FB00BFCA
:10238000B01A0020B11A0020B61A0020B41A00209A
:10239000641B0020E0220400B31A0020380F040060
:1023A000F0220400F422040038240400FC2204007B
:1023B000082304001423040018230400302304001D
:1023C0004423040000B587B003900291594B1B6869
:1023D0000133584A1360574B1B78DAB2564BDA7008
:1023E000544B5B78DAB2544B9A70524B9B78DAB20A
:1023F000514B5A704F4BDB78DAB24F4B1A704F4B40
:1024000000934F4B4F4A5049002020F0EBF80590C5
:10241000059B002B30D04D4B1B684D49184605F0ED
:1024200093FA4A4B1B684B49184605F08DFA00BFDA
:1024300001F010F901F010F9444B1868464B009375
:10244000F823464A464905F07FFA404B1868059B39
:10245000444A454905F078FA059801F0D3F83B4B1A
:102460001B684249184605F06FFA384B1B6838491B
:10247000184605F069FAFEE72F4BFF221A712E4B22
:10248000FF225A71304B1B889BB2DAB22A4B9A71E9
:102490002C4B1B889BB2DAB2274BDA71284B1B8876
:1024A0009BB2DAB2244B1A72244B1B889BB2DAB26D
:1024B000214B5A72204B402200210E2020F008F8B8
:1024C0000590059B002B31D0204B1B6820491846F6
:1024D00005F03AFA1D4B1B681E49184605F034FA00
:1024E00000BF01F0B7F801F0B7F8184B18681A4BA5
:1024F00000934FF48373194A194905F025FA134BD9
:102500001868059B174A184905F01EFA059801F04E
:1025100079F80E4B1B681549184605F015FA0B4B58
:102520001B680B49184605F00FFAFEE700BF07B01D
:102530005DF804FB881A00208C130020AE1A0020DE
:10254000AC1A0020AA1A0020A81A0020641B002040
:10255000F0220400F42204004C240400FC220400B5
:10256000082304001423040018230400302304006B
:1025700000B58BB00390A24A04AB07CA03C31A800C
:102580000233120C1A70039B1B6823F47F4323F061
:1025900007039C4A934200F012859A4A934200F244
:1025A0001085994A934200F0B683974A934200F20D
:1025B0000885964A934200F08784944A934200F239
:1025C0000085934A934200F03F84914A934200F27F
:1025D000F884904A934200F088838E4A934200F236
:1025E000F0848D4A934205D08C4A934200F069836F
:1025F00000F0E7BC01F02EF801F02EF8884B1B68C4
:102600008849184605F0A0F90DF11B0207AB1146E9
:1026100018461FF0C9FF0990099B002B31D0804B51
:102620001B688149184605F08FF97D4B1B687F496F
:10263000184605F089F900BF01F00CF801F00CF81C
:10264000774B18687A4B009340F22513794A7A4900
:1026500005F07AF9724B1868099B784A784905F0B9
:1026600073F9099800F0CEFF6D4B1B687549184649
:1026700005F06AF96A4B1B686B49184605F064F966
:10268000FEE79DF81C3003F00F03DBB28DF8173026
:102690009DF81730092B06D89DF817303033DBB280
:1026A0008DF8173005E09DF817303733DBB28DF821
:1026B00017309DF81C301B09DBB28DF818309DF8DF
:1026C0001830092B06D89DF818303033DBB28DF85E
:1026D000183005E09DF818303733DBB28DF818302C
:1026E0009DF81D3003F00F03DBB28DF819309DF813
:1026F0001930092B06D89DF819303033DBB28DF82C
:10270000193005E09DF819303733DBB28DF81930F8
:102710009DF81D301B09DBB28DF81A309DF81A3078
:10272000092B06D89DF81A303033DBB28DF81A30F9
:1027300005E09DF81A303733DBB28DF81A30424B82
:10274000FF229A72404BFF22DA729DF821203E4B05
:102750001A739DF820203C4B5A739DF81F203A4B6A
:102760009A739DF81E20384BDA739DF81D20364B66
:102770001A749DF81C20344B5A74334BFF229A7400
:10278000314BFF22DA7404AB0B2200210B201FF027
:102790009FFE0990099B002B58D0214B1B682249B2
:1027A000184605F0D1F81E4B1B682049184605F065
:1027B000CBF800BF00F04EFF00F04EFF184B18683A
:1027C0001B4B00934FF4A2731A4A1B4905F0BCF847
:1027D000134B1868099B194A194905F0B5F809986F
:1027E00000F010FF0E4B1B681649184605F0ACF8B8
:1027F0000B4B1B680C49184605F0A6F8FEE700BF16
:102800002C240400A0000906A0000A03A000060171
:10281000A0000A00A0000900A0000100A00006001E
:10282000641B00205C230400F0220400F422040056
:102830005C240400FC220400082304001423040088
:1028400018230400302304008C13002000230022EE
:10285000002100201FF080FE0990099B002B31D041
:10286000904B1B689049184605F06EF88D4B1B681D
:102870008E49184605F068F800BF00F0EBFE00F046
:10288000EBFE884B18688A4B00934FF4A473894A77
:10289000894905F059F8834B1868099B874A88498C
:1028A00005F052F8099800F0ADFE7E4B1B68854993
:1028B000184605F049F87B4B1B687B49184605F024
:1028C00043F8FEE780481FF06DFD0990099B002B3F
:1028D00031D0744B1B687449184605F035F8714BBC
:1028E0001B687249184605F02FF800BF00F0B2FED1
:1028F00000F0B2FE6B4B18686D4B00934FF4A6735B
:102900006C4A6D4905F020F8664B1868099B6B4AC4
:102910006B4905F019F8099800F074FE614B1B68CB
:102920006849184605F010F85E4B1B685E4918466A
:1029300005F00AF8FEE7644B1B78022118461FF0E9
:102940006BFD0990099B002B31D0564B1B685649F3
:10295000184604F0F9FF534B1B685449184604F01D
:10296000F3FF00BF00F076FE00F076FE4D4B1868D6
:102970004F4B00934FF4A8734E4A4F4904F0E4FFC5
:10298000484B1868099B4D4A4D4904F0DDFF0998F2
:1029900000F038FE434B1B684A49184604F0D4FF48
:1029A000404B1B684049184604F0CEFFFEE7464BFB
:1029B0001878002300930023A022A0211FF00AFD15
:1029C0000990099B002B31D0364B1B6836491846BD
:1029D00004F0BAFF334B1B683449184604F0B4FFC7
:1029E00000BF00F037FE00F037FE2E4B1868304B6A
:1029F000009340F259132F4A2F4904F0A5FF294BA9
:102A00001868099B2D4A2E4904F09EFF099800F092
:102A1000F9FD244B1B682B49184604F095FF214B08
:102A20001B682149184604F08FFFFEE7264B1B78F0
:102A3000022118461FF004FD0990099B002B45D088
:102A4000184B1B681849184604F07EFF154B1B688D
:102A50001649184604F078FF00BF00F0FBFD00F0B7
:102A6000FBFD104B1868124B009340F25D13114AA6
:102A7000114904F069FF0B4B1868099B0F4A104974
:102A800004F062FF099800F0BDFD064B1B680D497C
:102A9000184604F059FF034B1B680349184604F01D
:102AA00053FFFEE7641B0020F0220400F422040020
:102AB0005C240400FC220400082304001423040006
:102AC000182304003023040088130020A64B402262
:102AD00000210E201FF0FCFC0990099B002B31D037
:102AE000A24B1B68A249184604F02EFF9F4B1B689F
:102AF000A049184604F028FF00BF00F0ABFD00F02D
:102B0000ABFD9A4B18689C4B009340F261139B4AB3
:102B10009B4904F019FF954B1868099B994A9A49FB
:102B200004F012FF099800F06DFD904B1B68974967
:102B3000184604F009FF8D4B1B688D49184604F0B8
:102B400003FFFEE7924B0622002111201FF0C0FC7C
:102B50000990099B002B31D0844B1B68844918468F
:102B600004F0F2FE814B1B688249184604F0ECFE2B
:102B700000BF00F06FFD00F06FFD7C4B18687E4BCE
:102B800000934FF4B2737D4A7D4904F0DDFE774B2C
:102B90001868099B7B4A7C4904F0D6FE099800F02E
:102BA00031FD724B1B687949184604F0CDFE6F4B1E
:102BB0001B686F49184604F0C7FEFEE7754B0022FC
:102BC0001A6000230193002300930023724A4FF4FC
:102BD000A471724806F032FF0990099B002B31D096
:102BE000624B1B686249184604F0AEFE5F4B1B68DF
:102BF0006049184604F0A8FE00BF00F02BFD00F06D
:102C00002BFD5A4B18685C4B00934FF4B5735B4A2D
:102C10005B4904F099FE554B1868099B594A5A497B
:102C200004F092FE099800F0EDFC504B1B685749E8
:102C3000184604F089FE4D4B1B684D49184604F0B8
:102C400083FEFEE7564B0093564B574A57490120E7
:102C50001FF0C8FC0990099B002B00F0B481434B86
:102C60001B684349184604F06FFE404B1B684149FE
:102C7000184604F069FE00BF00F0ECFC00F0ECFC2C
:102C80003A4B18683C4B00934FF4B7733B4A3C49AE
:102C900004F05AFE354B1868099B3A4A3A4904F049
:102CA00053FE099800F0AEFC304B1B6837491846BC
:102CB00004F04AFE2D4B1B682D49184604F044FED3
:102CC000FEE7039B1A7B3A4B1A7000F0C3FC00F03E
:102CD000C3FC264B1B68364A12783649184604F066
:102CE00033FE2C4B00221A6074E1039BB3F80530CD
:102CF0009BB2DAB2304B1A7000F0ACFC00F0ACFCC6
:102D00001A4B1868039BB3F805309BB21A462B493F
:102D100004F01AFE5EE1039BB3F805309BB2142B5E
:102D200040F05381039BDB79012B5CD1039B1B8912
:102D30009BB2DBB2012B4BD1214B01221A70214BEC
:102D400000221A70204B00221A80039B1A79184B1C
:102D50001A7000F07FFC00F07FFC044B1B681B49DD
:102D6000184604F0F1FD30E18C130020641B0020B4
:102D7000F0220400F42204005C240400FC2204007D
:102D80000823040014230400182304003023040043
:102D9000CC130020881A0020C52301008C1A0020C3
:102DA000AE1A0020AC1A0020AA1A0020A81A00208F
:102DB000B21A002064230400B31A00207C2304000C
:102DC000B01A0020B11A0020B61A0020A023040077
:102DD000039B1B899BB2DBB2002B40F0F6807F4B3C
:102DE00000221A70F1E07E4B1B687E49184604F001
:102DF000ABFD7B4B1B687C49184604F0A5FD00BF6A
:102E000000F028FC00F028FC754B1868774B009305
:102E100040F2A713764A774904F096FD704B1B6881
:102E2000754A7649184604F08FFD6D4B1868039B70
:102E3000DB791A46724904F087FD694B1B686949C2
:102E4000184604F081FDFEE7039B18796D4B009353
:102E50006D4B402215211FF019FB0990099B002B97
:102E600000F0B5805E4B1B685E49184604F06CFDAF
:102E70005B4B1B685C49184604F066FD00BF00F020
:102E8000E9FB00F0E9FB564B1868584B00934FF4F0
:102E9000DC73574A574904F057FD514B1868099B9A
:102EA0005A4A5B4904F050FD099800F0ABFB4C4BCB
:102EB0001B685849184604F047FD494B1B684949AF
:102EC000184604F041FDFEE7534806F0E5FD534B7C
:102ED0001B78022118461FF09FFA0990099B002BCE
:102EE00031D03F4B1B683F49184604F02DFD3C4B49
:102EF0001B683D49184604F027FD00BF00F0AAFBFF
:102F000000F0AAFB364B1868384B009340F2C5130B
:102F1000374A384904F018FD314B1868099B3B4A81
:102F20003B4904F011FD099800F06CFB2C4B1B6829
:102F30003849184604F008FD294B1B6829491846F2
:102F400004F002FDFEE7354B1B78022118461FF006
:102F500077FA0990099B002B3BD0214B1B68214934
:102F6000184604F0F1FC1E4B1B681F49184604F07C
:102F7000EBFC00BF00F06EFB00F06EFB184B186816
:102F80001A4B00934FF4E573194A1A4904F0DCFC1C
:102F9000134B1868099B1D4A1D4904F0D5FC09987C
:102FA00000F030FB0E4B1B681A49184604F0CCFCAD
:102FB0000B4B1B680B49184604F0C6FCFEE700BF2C
:102FC00008E000BF06E000BF04E000BF02E000BF71
:102FD00000E000BF00BF0BB05DF804FBB01A00209A
:102FE000641B0020F0220400F42204005C2404008E
:102FF000FC22040008230400BC230400C4230400B2
:10300000DC230400B81A00208C13002014230400D1
:1030100018230400302304008C1A00208813002099
:1030200008B507F018FCFFF7E9F807F021FCFFF7F7
:10303000FFF805F07FFDF8E782B003468DF8073012
:103040009DF90730002B0CDB9DF8073003F01F02C1
:1030500005499DF907305B09012000FA02F241F8A9
:10306000232000BF02B0704700E100E082B00346B9
:103070008DF807309DF90730002B0DDB9DF80730E8
:1030800003F01F0206499DF907305B09012000FA91
:1030900002F2603341F8232000BF02B0704700BF46
:1030A00000E100E008B50EF0C1FB00BF08BD00B5AF
:1030B00083B06FF00100FFF7D9FF6FF00100FFF759
:1030C000BBFF07F03FFC019000BF03B05DF804FBBD
:1030D00000B583B00190019800F0DAF90198FFF78C
:1030E00047FA00BF03B05DF804FB82B001900123F2
:1030F000184602B0704700B5C5B00EF0B9FA0EF030
:10310000E2FA4390439B002B15D04398FFF7EDFF65
:10311000034683F00103DBB2002B0CD101AB184650
:103120001FF039F94290429B002B06D101AB1846A3
:10313000FFF7CEFF02E000BF00E000BF45B05DF842
:1031400004FB08B5012000F0BDFA202000F0BAFA17
:10315000402000F0B7FA00BF08BD08B50321802069
:1031600001F044FD03214FF4806001F03FFD032195
:103170004FF4906001F03AFD08214FF4C06001F077
:1031800035FD08214FF4F06001F030FD08213E20AC
:1031900001F02CFD08212D2001F028FD0023184608
:1031A00008BD0000024B1B681B0CDBB218467047C1
:1031B0000080E00F00B583B0FFF7F4FF0346012B5A
:1031C0001ED1114B5B6E03F48023002B0CBF012337
:1031D00000238DF807300C4B03F580531A464FF44B
:1031E00080235366094B04221A609DF80730002B98
:1031F00006D0054B03F500531A464FF4802353665F
:1032000000BF03B05DF804FB008000502020015097
:1032100008B5FFF7CFFF04F051F900F0E8FA04F029
:103220006FF804F067F904F099F804F0F9F804F085
:10323000FFF8FFF792FF04F077F800F0CDFA00F006
:1032400045FD00F0D9FD05F035FC00BF08BD00BF0D
:10325000704708B500F032FA06F052FB04F050F95E
:1032600004F0CAFE0BF0FCFF05F060FB09F020FB48
:103270000CF0EBFA00F01BF800BF08BD08B504F035
:1032800007F804F017F8FFF712FF00BF08BD08B5F4
:1032900000F0E4F900BF08BD00BF704700BF7047F1
:1032A00008B5FFF728FF00BF08BD00BF704708B58D
:1032B00000F04CF800BF08BD00B583B00190019B41
:1032C0001B6A019A1268104698470346184603B0D5
:1032D0005DF804FB30B59BB0174B11AC1D460FCD0C
:1032E0000FC495E80F0084E80F004FF4E133139307
:1032F0000023ADF852304FF48053ADF854300F4BEB
:1033000006AC1D460FCD0FC40FCD0FC495E80700C6
:1033100084E807000A4B02AC0FCB84E80F0006AB31
:1033200011AA02A907480090074804F079FB1990F8
:10333000199B18461BB030BDB8260400D8260400DF
:1033400004270400E01A0020BC1A002008B5FFF78B
:10335000C1FF00BF08BD000008B5034B1B6818463D
:1033600004F0DAFC00BF08BDBC1A002008B5034B0E
:103370001B68184604F0D0FC00BF08BDBC1A002032
:1033800008B50348FFF798FF0346184608BD00BF7D
:10339000BC1A0020012318467047012318467047C5
:1033A00000B583B001238DF807300EF0CDF9034648
:1033B00083F00103DBB2002B02D000238DF807302D
:1033C000FFF7E8FF034683F00103DBB2002B02D0D6
:1033D00000238DF807309DF80730184603B05DF8DC
:1033E00004FB00B583B000238DF8073000238DF86F
:1033F000063005F0DFFD03468DF807300EF0B2F918
:1034000003468DF805309DF80530042B03D10123C8
:103410008DF8063006E09DF80530022B02D101231D
:103420008DF80730FFF7ACFF03468DF805309DF8A7
:103430000530042B03D101238DF8063006E09DF8FA
:103440000530022B02D101238DF80730FFF7A5FFCD
:1034500003468DF805309DF80530042B03D1012378
:103460008DF8063006E09DF80530022B02D10123CD
:103470008DF807309DF80630002B02D000238DF820
:1034800007309DF80730184603B05DF804FB0000D4
:1034900000B587B00390039B1B6823F47F4323F0A0
:1034A00007034C4A934200F084804B4A934240F019
:1034B0008780039BB3F805309BB2192B40F08280C4
:1034C000464B01221A70039B1B79002219211846D2
:1034D0001FF014F80590059B002B30D0404B1B6863
:1034E0004049184604F030FA3D4B1B683E491846E7
:1034F00004F02AFA00BF00F0ADF800F0ADF8384B48
:1035000018683A4B00933F23394A3A4904F01CFAB1
:10351000334B1868059B384A384904F015FA05986A
:1035200000F070F82E4B1B683549184604F00CFA71
:103530002B4B1B682B49184604F006FAFEE7039B49
:103540001B7918461EF090FF0590059B002B39D083
:10355000234B1B682349184604F0F6F9204B1B68DF
:103560002149184604F0F0F900BF00F073F800F0AC
:1035700073F81B4B18681D4B009343231C4A1D49CD
:1035800004F0E2F9164B1868059B1B4A1B4904F02E
:10359000DBF9059800F036F8114B1B6818491846FE
:1035A00004F0D2F90E4B1B680E49184604F0CCF912
:1035B000FEE70A4B1B78002B06D007F0ADF903E0BD
:1035C00000BF02E000BF00E000BF00BF07B05DF831
:1035D00004FB00BFA0000601A0000A02601B00203F
:1035E000641B00201427040018270400D0270400BF
:1035F0002027040094270400A0270400A427040027
:10360000BC27040000B585B001900F4B1B680F4923
:10361000184604F099F904F03BF903900A4B1B6833
:10362000184604F021F9019800F036F8039804F0E8
:103630001BF9054B1B680649184604F085F900BFC5
:1036400005B05DF804FB00BF641B0020F0270400F8
:10365000F427040000BF704700BF704708B5094B4E
:1036600001221A70084B00221A70084B04221A70AB
:10367000074B1F221A7004F00BF90346054A13602A
:1036800000BF08BD6E150020681B00206F150020CC
:1036900070150020641B002000B583B00190054B1D
:1036A0001B680549184604F04FF900BF03B05DF8E8
:1036B00004FB00BF641B0020F82704000F231846FA
:1036C0007047000000B585B001900E230393019B65
:1036D000202B49DC019B002B77DD019B013B1F2B3D
:1036E00073D801A252F823F071370100833701002B
:1036F000CB370100CB370100CB370100CB370100BE
:10370000CB37010095370100CB370100CB370100E3
:10371000CB370100CB370100CB370100CB3701009D
:10372000CB370100CB370100CB370100CB3701008D
:10373000CB370100CB370100CB370100CB3701007D
:10374000CB370100CB370100CB370100CB3701006D
:10375000CB370100CB370100CB370100CB3701005D
:10376000CB370100A7370100019B402B24D02CE070
:10377000002304220421002003F0C4F80023039353
:1037800024E0002304220421002003F0BBF80023DE
:1037900003931BE0002304220421002003F0B2F86D
:1037A0000023039312E0002304220421012003F0EC
:1037B000A9F80023039309E000230422002100203C
:1037C00003F0A0F80023039300E000BF039B18461A
:1037D00005B05DF804FB00BF08B501213A2000F0F8
:1037E000AFFDFFF7AEFC00F067F800BF08BD08B5FD
:1037F00001213A2000F0A4FD00BF08BD82B00346BD
:1038000000918DF807309DF80730002B0AD09DF805
:103810000730012B06D09DF80730022B02D09DF80F
:103820000730032B08489DF807200121009B994091
:1038300013465B0013441B01034403F5005310338C
:10384000196000BF02B0704700C0035082B0034649
:1038500000918DF807309DF80730002B0AD09DF8B5
:103860000730012B06D09DF80730022B02D09DF8BF
:103870000730032B08489DF807200121009B994041
:1038800013465B0013441B01034403F580531033BC
:10389000196000BF02B0704700C0035008B5032193
:1038A0000220FFF7ABFF00BF08BD08B503210220CF
:1038B000FFF7CCFF00BF08BD30B589B0454B01AC68
:1038C0001D460FCD0FC495E8070084E807000121CD
:1038D0003A2000F035FD0121282000F031FD0123C0
:1038E0008DF812303C4B039301AB19463B4803F073
:1038F000F7F9012304220021022003F003F800233A
:1039000001220121022002F0FDFF012304220221F5
:10391000022002F0F7FF012304220321022002F01B
:10392000F1FF2F4B4FF00212C3F830262C4B2D4ADB
:10393000C3F82C262A4B0222C3F83426284B1C221B
:10394000C3F81C264FF4487006F0A4FFFFF7A6FF4B
:10395000142006F09FFFFFF7A8FF232006F09AFF30
:10396000FFF79CFFB9211D4803F094FAFFF79DFF74
:10397000002300220021022002F0C4FF00230022C5
:103980000121022002F0BEFF0123002202210220B9
:1039900002F0B8FF012300220321022002F0B2FF4F
:1039A0000E4803F021FA0E4B0022C3F830260C4BD0
:1039B0000022C3F82C260A4B0022C3F83426084BF9
:1039C0000022C3F81C260021282000F0B9FC00BF0B
:1039D00009B030BDFC27040000127A0000C0055079
:1039E00000C003500200010000B585B000F080F86F
:1039F0001F4B039319E0002302930EE0039B1A6808
:103A0000029B9B001A44039B5968029B9B000B443A
:103A100012681A60029B01330293039B9B68029A0F
:103A20009A42EBD3039B0C330393039B114A9342BB
:103A3000E1D3114B019314E00023009309E0019BB3
:103A40001A68009B9B00134400221A60009B0133FC
:103A50000093019B5B68009A9A42F0D3019B083364
:103A60000193019B054A9342E6D3FEF78DFB00BF0D
:103A700098730400A4730400A4730400A4730400E6
:103A8000FEE7000082B003468DF807309DF907304D
:103A9000002B0CDB9DF8073003F01F0205499DF950
:103AA00007305B09012000FA02F241F8232000BF31
:103AB00002B0704700E100E082B003468DF80730A5
:103AC0009DF90730002B0DDB9DF8073003F01F0236
:103AD00006499DF907305B09012000FA02F26033C4
:103AE00041F8232000BF02B0704700BF00E100E0B2
:103AF00008B51E4B1E4A9A601C4BD3F888301B4AEF
:103B000043F47003C2F888301A4B03F580531A4609
:103B10004FF400439366184B03F500531A464FF0D9
:103B2000FF331366144B03F500531A464FF6DF7349
:103B30005366124B02221A60BFF34F8F00BFBFF3D0
:103B40006F8F00BF0320FFF7B7FF0B4B03F5005348
:103B50001A464FF44033D3600320FFF793FF064B20
:103B60004FF440321A6100BF08BD00BF00ED00E015
:103B7000002001000080005000800044D0ED00E0F3
:103B8000014B1B68184670477C15002000B583B0B8
:103B9000002301930E4B1B6F03F00703032B09D087
:103BA000032B0ED8012B09D0022B0AD1FFF7E8FF17
:103BB000019007E0074B1B68019303E0064B01935C
:103BC00000E0FEE7019B184603B05DF804FB00BF70
:103BD0000080005074150020002D310100B583B025
:103BE000FFF7D4FF01900A4B1B6F1B0B03F00F0371
:103BF0000093009B0133019AB2FBF3F30193054A52
:103C0000019B1360019B184603B05DF804FB00BFE5
:103C10000080005080150020014B1846704700BFFF
:103C200000B4C404014B1B6818467047741500208B
:103C300000B583B00190074A019B1360064B1B6FD0
:103C400003F00703032B01D1FFF7C8FF00BF03B048
:103C50005DF804FB74150020008000500023184616
:103C600070470000014B1846704700BF002D31011E
:103C70004FF40043184670474FF47A731846704764
:103C8000014B1B681846704778150020BFF34F8F13
:103C900000BF064BDB6803F4E0620449044B1343A6
:103CA000CB60BFF34F8F00BF00BFFDE700ED00E02A
:103CB0000400FA0582B00190019BB3F5903F01D258
:103CC000012300E00023184602B0704700B583B01E
:103CD00028231B681846FFF7EDFF034683F0010316
:103CE000DBB2002B02D04FF4817316E00D4B1B7832
:103CF000002B03D00B4B1B78022B0BD128231B6806
:103D0000DB6998470190019B002B05D1054B0122EF
:103D10001A7001E000230193019B184603B05DF87F
:103D200004FB00BF691B002000B583B04FF00053B7
:103D30000193019B40F202221A80019B4FF20F0275
:103D40005A80FFF7A3FF82B00190019B00221A6006
:103D500000BF02B0704782B001900091009B002B21
:103D600002D0019B002B00BF019B1A68009B1A60C8
:103D7000019B009A1A6000BF02B0704784B00190A6
:103D80000091009B002B02D0019B002B00BF019BE8
:103D900003930CE0039B1B68009A9A4204D1009B9A
:103DA0001A68039B1A6006E0039B1B680393039B3E
:103DB0001B68002BEED104B07047000084B0019066
:103DC0000B4B1A68019B13440A4A934202D94FF0E5
:103DD000FF3309E0064B1B680393054B1A68019BF0
:103DE0001344034A1360039B184604B0704700BF96
:103DF000841500200080002008B5054B1B68054A8B
:103E000012681146184624F0E3F80346184608BD28
:103E100088150020A815002082B0074B9B68DBB2F4
:103E20000193019B0A3303F01F03012202FA03F3FB
:103E3000184602B0704700BF0080E00F84B0034610
:103E40008DF807309DF90730B3F1FF3F04D0002B08
:103E500005D10023039305E0044B039302E0044BD8
:103E6000039300BF039B184604B0704721E000F0A5
:103E700024E000F086B001900091019B0493009B28
:103E80009B080393002305930CE0049B1B68B3F18C
:103E9000FF3F01D000230AE0049B04330493059BF9
:103EA00001330593059A039B9A42EED301231846EA
:103EB00006B0704700B583B00190009102F09CFD00
:103EC0000023184603B05DF804FB08B502F0ACFD12
:103ED00000BF08BD00B585B0019003AB184602F0E5
:103EE00091FE9DF80E309AB2019B1A80019B01222F
:103EF000DA70019B00229A70FFF78EFF0246019B49
:103F00005A600023184605B05DF804FB82B00346F2
:103F10008DF8073000BF02B0704700B587B003903E
:103F200002910192039B0593029B0493059B03F06E
:103F30000303002B14D1049B03F00303002B0FD1C8
:103F40000AE0059A131D0593049B191D049112683C
:103F50001A60019B013B0193019B002BF1D106E00C
:103F6000019B9B001A46039902982BF01BFF00232C
:103F7000184607B05DF804FB00B58BB003900291C2
:103F80000192029B0893039B0793019B9B0006935E
:103F9000069A089907982CF0C7FF03468DF817304A
:103FA0009DF917301846FFF749FF0990099B002B30
:103FB00009D1069A089907982BF0E4FE0346002BD6
:103FC00001D0034B0993099B18460BB05DF804FB25
:103FD00010E000F000B585B0019001982CF09CFF36
:103FE00003468DF80B309DF90B301846FFF726FF7E
:103FF0000390039B002B0ED1FFF70EFF03461946DB
:104000000198FFF737FF034683F00103DBB2002B73
:1040100001D0034B0393039B184605B05DF804FBE6
:104020000EE000F008B501F05DFE0346014A1360A2
:1040300000BF08BD0022002008B5034B1B681846CE
:1040400001F05CFE00BF08BD0022002000B583B077
:10405000019000910198019A009B1344013B009A42
:10406000194604F0CFFC00BF03B05DF804FB08B5AF
:10407000FFF7B4FD0346184608BD86B003900291D1
:104080000192019B002B04D0039B03F58053059301
:1040900003E0039B03F500530593059B0121029A5E
:1040A00001FA02F21A6000BF06B0704782B00190B8
:1040B0000091019B1A68009B22FA03F303F00103AD
:1040C000184602B07047000008B500BF042104483C
:1040D000FFF7ECFF0346002BF8D100BF00BF08BD7F
:1040E0008440005008B5FFF7EFFF044BD3F884304D
:1040F0009B0903F00303DBB2184608BD00400050E3
:10410000034B1B6A024A43F00103136200BF70476E
:1041100000C00750034B1B6A024A23F001031362DD
:1041200000BF704700C00750054BDB6903F48033C4
:10413000002B14BF01230023DBB21846704700BFD9
:1041400000000350024B0022DA6300BF704700BF3B
:1041500000000350024B41F67132DA6300BF704732
:1041600000000350014B9B68184670470000035045
:1041700082B00190024A019B936000BF02B0704779
:104180000000035084B0019000230393019BB3F51A
:10419000607F21D0019BB3F5607F34D8019BB3F5DC
:1041A000207F29D0019BB3F5207F2CD8019BB3F54C
:1041B000007F19D0019BB3F5007F24D8019B002B11
:1041C00003D0019BB3F5C07F1DD1124B1B6F1B0B9E
:1041D00003F00F03039317E00E4BD3F880301B0955
:1041E00003F0030303930FE00A4BD3F890301B0E48
:1041F00003F01F03039307E0064B1B6F9B0A03F0BA
:104200000103039300E000BF039B0133184604B091
:10421000704700BF0080005010B582B0019000913F
:10422000019BB3F5607F4BD0019BB3F5607F00F23B
:104230008180019BB3F5207F6BD0019BB3F5207F7C
:1042400078D8019BB3F5007F50D0019BB3F5007F78
:1042500070D8019B002B03D0019BB3F5C07F69D1BF
:10426000009B012B0AD0009B022B07D0009B042B44
:1042700004D0009B082B01D0009B102B00BF01F045
:10428000B1FC01F051FC01F087FA2C4B1B6F23F4B9
:104290007042009B013B1B03284913430B67FFF748
:1042A000E6FE0446FFF71EFF0346C3F1020319466C
:1042B000204601F0D9F901F03FFC01F079FA3AE02B
:1042C000009B012B04D0009B022B01D0009B042BF0
:1042D00000BF1A4BD3F8803023F03002009B013B23
:1042E0001B0116491343C1F8803024E0009B002BCA
:1042F00002D0009B202B00BF104BD3F8903023F04E
:10430000F852009B013B1B060C491343C1F8903047
:1043100011E0009B012B01D0009B022B00BF074B3B
:104320001B6F23F48062009B013B9B0203491343F4
:104330000B6700E000BF00BF02B010BD008000505E
:1043400000B585B001900B468DF803300023039330
:10435000019B5B09002B0FD0019B5B09012B02D154
:104360000D4B039308E0019B5B09022B02D10B4B21
:10437000039301E00A4B0393019B03F01F03029395
:104380009DF803301A4602990398FFF776FE00BFA6
:1043900005B05DF804FB00BF6480005068800050E9
:1043A0006082005010B584B0019000230393002375
:1043B0000293019BB3F5F06F00F0C282019BB3F54D
:1043C000F06F00F2C382019BB3F5E06F00F0B282A0
:1043D000019BB3F5E06F00F2B982019BB3F5D06F9A
:1043E00000F0A282019BB3F5D06F00F2AF82019B77
:1043F000B3F5C06F00F09282019BB3F5C06F00F27D
:10440000A582019BB3F5B06F00F07C82019BB3F5F0
:10441000B06F00F29B82019BB3F5A06F00F06C823D
:10442000019BB3F5A06F00F29182019BB3F5906FF1
:1044300000F05C82019BB3F5906F00F28782019BD4
:10444000B3F5806F00F04C82019BB3F5806F00F2F2
:104450007D82019BB3F5607F00F03382019BB3F551
:10446000607F00F27382019BB3F5407F00F01C82F5
:10447000019BB3F5407F00F26982019BB3F5207F79
:1044800000F00682019BB3F5207F00F25F82019B62
:10449000B3F5007F00F0F081019BB3F5007F00F2DF
:1044A0005582019BB3F5C07F00F0E181019BB3F51C
:1044B000C07F00F24B82019B002B00F0D881019B52
:1044C000B3F5807F00F24282019B202BC0F03E8238
:1044D000019B203BE02B00F2398201A252F823F02D
:1044E0006F480100914801006F48010091480100A8
:1044F000E1480100E1480100E1480100E148010014
:10450000914801009148010005490100A9480100B6
:104510001D49010029490100A948010091480100F5
:1045200091480100914801004D4901004D490100A9
:104530004D4901004D4901004D4901004D4901001F
:10454000F9480100ED48010091480100914801003F
:10455000914801004149010035490100914801009D
:104560004D4901004D4901004D4901004D490100EF
:104570004D4901004D4901004D4901004D490100DF
:104580004D4901004D4901004D4901004D490100CF
:104590004D4901006F4801004D4901006F4801007D
:1045A0006F4801006F480100E14801004D490100DA
:1045B0004D4901004D4901004D4901004D4901009F
:1045C0004D4901004D4901004D4901004D4901008F
:1045D0004D4901004D4901004D4901004D4901007F
:1045E0006F4801006F4801004D4901004D4901002D
:1045F0004D4901004D4901004D4901004D4901005F
:104600004D4901004D4901004D4901004D4901004E
:104610004D4901004D4901004D4901004D4901003E
:104620004D4901004D4901004D4901004D4901002E
:104630004D4901004D4901004D4901004D4901001E
:104640004D4901004D4901004D4901004D4901000E
:104650004D4901004D4901004D4901004D490100FE
:10466000654801004D4901004D4901004D490100D7
:104670004D4901004D4901004D4901004D490100DE
:104680004D4901004D4901004D4901004D490100CE
:104690004D4901004D4901004D4901004D490100BE
:1046A0004D4901004D4901004D4901004D490100AE
:1046B0004D4901004D4901004D4901004D4901009E
:1046C0004D4901004D4901004D4901004D4901008E
:1046D0004D4901004D4901004D4901004D4901007E
:1046E0004D4901004D4901004D4901004D4901006E
:1046F0004D4901004D4901004D4901004D4901005E
:104700004D4901004D4901004D4901004D4901004D
:104710004D4901004D4901004D4901004D4901003D
:104720004D4901004D4901004D4901004D4901002D
:104730004D4901004D4901004D4901004D4901001D
:104740004D4901004D4901004D4901004D4901000D
:104750004D4901004D4901004D4901004D490100FD
:104760004D4901004D4901004D4901004D490100ED
:104770004D4901004D4901004D4901004D490100DD
:104780004D4901004D4901004D4901004D490100CD
:104790004D4901004D4901004D4901004D490100BD
:1047A0004D4901004D4901004D4901004D490100AD
:1047B0004D4901004D4901004D4901004D4901009D
:1047C0004D4901004D4901004D4901004D4901008D
:1047D0004D4901004D4901004D4901004D4901007D
:1047E0004D4901004D4901004D4901004D4901006D
:1047F0004D4901004D4901004D4901004D4901005D
:104800004D4901004D4901004D4901004D4901004C
:104810004D4901004D4901004D4901004D4901003C
:104820004D4901004D4901004D4901004D4901002C
:104830004D4901004D4901004D4901004D4901001C
:104840004D4901004D4901004D4901004D4901000C
:104850004D4901004D4901004D4901004D490100FC
:1048600011490100FFF792F9034603936FE0FFF748
:10487000B5F9034603936AE0FFF788F904464FF45D
:104880000070FFF77FFC0346B4FBF3F303935EE095
:10489000FFF7A4F904464FF42070FFF773FC0346BA
:1048A000B4FBF3F3039352E0FFF798F904464FF497
:1048B0002070FFF767FC0346B4FBF3F35B08039338
:1048C00045E002AB0021184600F088FF029C4FF43F
:1048D0006070FFF757FC0346B4FBF3F3039336E035
:1048E00003AB0021184600F0D7FF30E003AB0021F6
:1048F000184600F0CDFE2AE003AB0021184600F078
:104900001FFF24E003AB0021184601F0D9F81EE098
:1049100003AB0021184601F0B9F918E003AB002100
:10492000184600F0F5FF12E003AB0021184601F035
:1049300063F90CE003AB0021184601F017F906E01B
:1049400003AB0021184601F01FF800E000BF039BF5
:10495000184604B010BD00BF00B585B0019000231B
:104960000393019BB3F5086F00F02681019BB3F51B
:10497000086F00F23381019BB3F5006F00F01081E6
:10498000019BB3F5006F00F22981019BB3F5F06F35
:1049900000F00081019BB3F5F06F00F21F81019BD5
:1049A000B3F5E06F00F01481019BB3F5E06F00F206
:1049B0001581019BB3F5D06F00F0F880019BB3F532
:1049C000D06F00F20B81019BB3F5C06F00F0DC806B
:1049D000019BB3F5C06F00F20181019BB3F5B06F8D
:1049E00000F0C080019BB3F5B06F00F2F780019B2F
:1049F000B3F5A06F00F0E680019BB3F5A06F00F265
:104A0000ED80019BB3F5906F00F0CA80019BB3F578
:104A1000906F00F2E380019BB3F5806F00F0A880F7
:104A2000019BB3F5806F00F2D980019BB3F5807FC5
:104A300000F0A480019BB3F5807F00F2CF80019B42
:104A4000522B69D8019B242BC0F0C880019B243BCA
:104A50002E2B00F2C38001A252F823F0714B01000B
:104A6000714B0100714B0100714B0100DD4B0100E6
:104A7000DD4B0100654B0100DD4B0100894B01005E
:104A8000AD4B0100DD4B0100DD4B0100DD4B0100B2
:104A9000DD4B0100DD4B0100DD4B0100DD4B010072
:104AA000DD4B0100DD4B0100DD4B0100C54B01007A
:104AB000DD4B0100DD4B0100DD4B0100DD4B010052
:104AC000954B0100D14B0100DD4B0100DD4B010096
:104AD000DD4B0100DD4B0100DD4B0100DD4B010032
:104AE000DD4B0100DD4B0100DD4B0100DD4B010022
:104AF000DD4B0100DD4B0100DD4B0100DD4B010012
:104B0000DD4B0100DD4B0100DD4B0100DD4B010001
:104B1000DD4B0100714B0100019B802B5ED1324BBC
:104B20001B6F03F00703013B032B17D801A252F8B8
:104B300023F000BF574B0100454B01004B4B0100D8
:104B4000514B0100052303930BE00323039308E07B
:104B50000723039305E00223039302E0002303935A
:104B600000BF3CE003AB1946002000F0A9FF36E08F
:104B700003AB1946002000F08FFE30E003AB19466E
:104B8000002001F083F82AE003AB1946002000F072
:104B9000BFFE24E003AB1946002000F0F5FE1EE046
:104BA00003AB1946002000F073FD18E003AB194673
:104BB000002001F021F812E003AB1946002000F0BC
:104BC00029FE0CE003AB1946002000F0B9FD06E019
:104BD00003AB1946002000F0C9FF00E000BF039BB3
:104BE000184605B05DF804FB0080005010B584B095
:104BF000019000910023039300238DF80B300023D4
:104C00008DF80A30019BB3F5086F00F09D82019B7F
:104C1000B3F5086F00F20583019BB3F5006F00F058
:104C20002D82019BB3F5006F00F2FB82019BB3F56F
:104C3000F06F00F0FE81019BB3F5F06F00F2F1829E
:104C4000019BB3F5E06F00F0C782019BB3F5E06F05
:104C500000F2E782019BB3F5D06F00F04882019B20
:104C6000B3F5D06F00F2DD82019BB3F5C06F00F0A9
:104C7000BB81019BB3F5C06F00F2D382019BB3F5FA
:104C8000B06F00F01281019BB3F5B06F00F2C982E2
:104C9000019BB3F5A06F00F08782019BB3F5A06F75
:104CA00000F2BF82019BB3F5906F00F0E781019B9A
:104CB000B3F5906F00F2B582019BB3F5806F00F001
:104CC0000C81019BB3F5806F00F2AB82019BB3F5C1
:104CD000807F00F02481019BB3F5807F00F2A182E8
:104CE000019B522B6AD8019B242BC0F09A82019B16
:104CF000243B2E2B00F2958201A252F823F000BF34
:104D0000DB4E0100DB4E0100DB4E0100DB4E0100FB
:104D10002352010023520100AB4E01002352010037
:104D2000E94F0100EF50010023520100235201001E
:104D3000235201002352010023520100235201009B
:104D4000235201002352010023520100235201008B
:104D5000A9510100235201002352010023520100F6
:104D60002352010033500100D951010023520100A8
:104D7000235201002352010023520100235201005B
:104D8000235201002352010023520100235201004B
:104D9000235201002352010023520100235201003B
:104DA000235201002352010023520100235201002B
:104DB0002352010023520100DB4E0100019B802B96
:104DC00040F02F82009B023B052B32D801A252F803
:104DD00023F000BF2D4E0100F34D0100334E0100C2
:104DE000ED4D0100334E0100274E010002230393D5
:104DF00020E003230393AD4B03F580531A464FF491
:104E000000235366AA4B9B6A03F00203002B14BFD6
:104E1000012300238DF80B30A54B03F580531A4670
:104E20000123936206E00423039303E00123039329
:104E300000E000BF0121022001F026F900F0D2FEBF
:104E400000F072FE00F0A8FC984B1B6F23F00702E5
:104E50009649039B13430B67FFF709F90446FFF7D5
:104E600041F90346C3F102031946204600F0FCFB5A
:104E70000121002001F0DAF800F05EFE00F098FC5D
:104E80009DF80B3083F00103DBB2002B09D0009BAF
:104E9000032B08D1864B03F500531A460123936276
:104EA00002E000BFBEE100BFBCE1009B022B05D0C9
:104EB000009B0F2B05D10123039303E002230393EF
:104EC00000E000BF794BD3F8803123F0030277492B
:104ED000039B1343C1F88031A4E1009B052B09D04B
:104EE000009B052B0FD8009B022B09D0009B032BA6
:104EF00003D008E00123039306E00223039303E0B9
:104F00000323039300E000BF684BD3F8203123F064
:104F100003026649039B1343C1F8203182E1009BE1
:104F2000083B082B5ED801A252F823F0514F010034
:104F3000514F0100E54F0100514F01009B4F01000F
:104F4000E54F0100E54F0100E54F0100514F010021
:104F5000564B5B6E03F48033002B0CBF0123002300
:104F60008DF80A30514B03F580531A464FF48033C5
:104F70005366FFF7C5F89DF80A30002B06D04B4B5F
:104F800003F500531A464FF480335366494B1B68B0
:104F9000484A23F00403136025E0444B5B6E03F49E
:104FA0008033002B0CBF012300238DF80A303F4BC8
:104FB00003F580531A464FF480335366FFF7AAF87F
:104FC0009DF80A30002B06D0384B03F500531A46E3
:104FD0004FF480335366374B1B68364A43F0040363
:104FE000136000E000BF1DE1009B0B2B12D0009B63
:104FF0000B2B12D8009B082B09D0009B082B0CD33D
:10500000009B093B012B08D80123039306E00223F0
:10501000039303E00323039300E000BF234BD3F883
:10502000403123F003022149039B1343C1F840316F
:10503000F8E0009B0B2B12D0009B0B2B12D8009B8F
:10504000082B09D0009B082B0CD3009B093B012B9C
:1050500008D80123039306E00223039303E003230C
:10506000039300E000BF114BD3F8603123F003023B
:105070000E49039B1343C1F86031D3E0009B023B10
:10508000052B28D801A252F823F000BFBF50010021
:10509000B9500100D1500100A5500100CB500100D2
:1050A000C55001000123039316E000BF00800050AB
:1050B00000C0005010E000E0022303930CE0032343
:1050C000039309E00423039306E00523039303E01D
:1050D0000623039300E000BF544BD3F8243123F0A0
:1050E00007025249039B1343C1F824319AE0009B05
:1050F000083B062B1CD801A252F823F01F510100D7
:1051000019510100195101002551010031510100CF
:10511000315101002B5101000123039309E00223C7
:10512000039306E00323039303E00423039300E0C7
:1051300000BF3E4BD3F8003223F007023B49039BEC
:105140001343C1F800326DE0009B013B072B1FD8D1
:1051500001A252F823F000BF8B51010091510100D0
:1051600079510100915101009151010091510100CB
:10517000855101007F5101000123039309E00223BF
:10518000039306E00323039303E00023039300E06B
:1051900000BF264BD3F8003123F003022349039BC1
:1051A0001343C1F800313DE0009B0F2B03D0009B5F
:1051B000102B03D005E00123039302E002230393A5
:1051C00000BF1A4BD3F8203223F003021749039B88
:1051D0001343C1F8203225E0009B0B2B12D0009B1B
:1051E0000B2B12D8009B082B09D0009B082B0CD34B
:1051F000009B093B012B08D80123039306E00223FF
:10520000039303E00323039300E000BF074BD3F8AD
:10521000403223F003020549039B1343C1F8403297
:1052200000E000BF00BF04B010BD00BF0080005010
:1052300000B585B001900198FFF78EFB0290029BAC
:10524000082B07D0029B082B20D3029B093B012B84
:105250001CD804E0134B1B88ADF80E301BE0124B3A
:1052600003F580531A464FF4001353660F4B5B6AE5
:1052700003F00103002B04D04FF4FA73ADF80E30A5
:1052800009E04FF6FF73ADF80E3004E04FF6FF7300
:10529000ADF80E3000BFBDF80E30184605B05DF811
:1052A00004FB00BFAC1500200080005000400250FD
:1052B00000B583B001908020FFF74EFB0346032B1F
:1052C00000F0E280724B03F580531A464FF400233E
:1052D0005366704B45F60E02C3F880206D4B03F504
:1052E00080531A46022393626A4B03F500531A4611
:1052F0000123936200BF674B9B6D03F48033002B47
:10530000F9D1019B1B681A06019B5B681B051343BF
:10531000019A127B12041343019A527B1203134326
:10532000019A927B92011343019AD27B1146594A0A
:105330000B431361574B9B6903F00042019B1B69B0
:105340009B061A43019B5B691B061343019A127E5D
:1053500012041343019A527E12021343019A927E61
:1053600011464C4A0B4393614A4B1B6A23F00D03D1
:10537000019AD269002A01D1002200E008221343D9
:10538000019AD27E92001A43019BDB694149134383
:105390000B62019BDB69002B57D13E4B9B6A23F0CC
:1053A0003303019A92F8202052011343019A92F894
:1053B000212012011343374A43F00103936200BFD7
:1053C000344B9A6D344B1340334A9342F8D1314BEE
:1053D00003F580531A46022393622E4B02221A656C
:1053E00000BF2C4B9B6D03F08043002BF9D1294B60
:1053F0001B6923F47002019B9B681B05254913431D
:105400000B61244B03F580531A464FF00043936120
:10541000019B93F8223083F00103DBB2002B05D00F
:105420001C4B03F500531A4602239362019B93F829
:10543000233083F00103DBB2002B1BD0154B03F5A7
:1054400000531A460123936214E0124B9B6A23F027
:105450003303019A92F8202052011343019A92F8E3
:10546000222052001343019A92F823201146094A40
:105470000B439362019B93F82430002B05D0054B1E
:10548000064AC3F8802000E000BF03B05DF804FBCB
:105490000080005000C0005003000140F1A7FFFF52
:1054A000024B93F900301846704700BFB422002029
:1054B00084B001904F230393019B5B788DF80B30F0
:1054C0009DF80B20039B934228BF13468DF80A30AA
:1054D000284B03F580531A464FF480035366264B3E
:1054E0004FF4D1525A62244B03F580531A460223DB
:1054F0005360214B03F500531A460123536000BF4C
:105500001D4B1B6903F48033002BF9D1019B1B78E1
:105510001A029DF80A30184913434B61019B5B68DE
:105520001A02019B9B681B011343019A127B5200D4
:105530001343019A527B11460F4A0B439360019B20
:105540009B7B5A01019BDB7B1B011A43019B1B7C4C
:105550005B001343019A527C1A43074B5A60019B2C
:105560009B7C002B03D0044B6FF4D1525A6200BFD6
:1055700004B07047008000500000025082B0034623
:10558000ADF80630034ABDF80630138000BF02B004
:10559000704700BFAC15002000B587B003468DF8FA
:1055A0000730002303930023059300230493274B24
:1055B00003F580531A464FF400135366244B02221E
:1055C0005A6000BF224B9B6803F48033002BF9D153
:1055D0009DF80730012B2ED1FEF724FB0390039B8F
:1055E0001C4A934205D11C4B059345F67A1304934C
:1055F00017E0039B194A934205D1194B059345F6D1
:105600001A0304930DE0039A13469B0013445B0AAC
:105610000593144B0493039B5B0A049AB2FBF3F3C8
:1056200004930B4A059BD362094A049B1363084BFE
:1056300001225A6202E0064B00225A62044B002209
:105640005A6000BF07B05DF804FB00BF0080005047
:105650000040025000F04902D8B80500C0175302BC
:10566000BBCF05006466666600B583B0019000910B
:10567000009B002B04DD0121019800F0E9F903E013
:105680000021019800F0E4F900BF03B05DF804FBCD
:1056900000B585B00190009100230393274BD3F808
:1056A000243103F00703013B052B33D801A252F844
:1056B00023F000BFCD560100E5560100FD56010064
:1056C00009570100D9560100F1560100FEF758FABA
:1056D00003900523029320E0FEF752FA039006237D
:1056E00002931AE0FEF79EFA03900323029314E05C
:1056F000FEF798FA0390042302930EE0FEF7B2FA45
:1057000003900223029308E0FEF7A8FA0390072310
:10571000029302E00023029300BF019B002B02D002
:10572000019B039A1A60009B002B02D0009B029AF7
:105730001A6000BF05B05DF804FB00BF0080005098
:1057400000B583B001900091124BD3F8203203F0E2
:105750000303012B02D0022B05D009E00099019828
:1057600000F09AF811E00099019800F0D1F80CE0EF
:10577000019B002B02D0019B00221A60009B002B92
:1057800002D0009B00221A6000BF00BF03B05DF88A
:1057900004FB00BF00800050044B03F580531A4601
:1057A0004FF48033136700BF704700BF0080005084
:1057B00008B58020FEF7F6FD0346064A934206D858
:1057C000054B03F500531A464FF48033136700BFAF
:1057D00008BD00BF005A62020080005000B585B0CD
:1057E0000190009100230393FEF7D0F903900D235D
:1057F0000293019B002B02D0019B039A1A60009B2D
:10580000002B02D0009B029A1A6000BF05B05DF821
:1058100004FB000000B585B00190009100230393C4
:105820001C4BD3F8003103F00303032B1FD801A254
:1058300052F823F069580100455801005158010001
:105840005D580100FEF7EEF903900323029311E087
:10585000FEF716FA0390082302930BE0FEF7FEF919
:1058600003900723029305E00123029302E0002343
:10587000029300BF019B002B02D0019B039A1A6088
:10588000009B002B02D0009B029A1A6000BF05B05B
:105890005DF804FB0080005000B585B001900091D8
:1058A00000230393194BD3F8203103F00303032B98
:1058B00012D0032B16D8012B02D0022B06D011E0F8
:1058C000FEF75EF90390052302930EE0FEF7AAF9B6
:1058D00003900323029308E0FEF7C4F90390022328
:1058E000029302E00023029300BF019B002B02D031
:1058F000019B039A1A60009B002B02D0009B029A26
:105900001A6000BF05B05DF804FB00BF00800050C6
:1059100000B585B00190009100230393194BD3F893
:10592000403103F00303032B12D0032B16D8012BB5
:1059300002D0022B06D011E0FEF79AF9039009235A
:1059400002930EE0FEF79CF903900823029308E00F
:10595000FEF792F903900B23029302E000230293D7
:1059600000BF019B002B02D0019B039A1A60009B91
:10597000002B02D0009B029A1A6000BF05B05DF8B0
:1059800004FB00BF0080005000B585B0019000917D
:1059900000230393194BD3F8603103F00303032B67
:1059A00012D0032B16D8012B02D0022B06D011E007
:1059B000FEF75EF90390092302930EE0FEF760F90B
:1059C00003900823029308E0FEF756F903900B2397
:1059D000029302E00023029300BF019B002B02D040
:1059E000019B039A1A60009B002B02D0009B029A35
:1059F0001A6000BF05B05DF804FB00BF00800050D6
:105A000084B0019000914FF440130393009B002B4E
:105A10000AD1019B0D4A934203D94FF4801303939B
:105A20000FE0002303930CE0009B002B09DD019B9A
:105A3000064A934203D94FF48013039301E00023F5
:105A40000393039B184604B0704700BF005A6202DC
:105A500000B585B001900091184B03F580531A46AC
:105A60004FF4003393660020FEF78CFB0246019B47
:105A700002FB03F30193FEF757FB03468DF80F304B
:105A8000FEF768FBFEF76EFB034623F44013029318
:105A900000990198FFF7B4FF0246029B134302935B
:105AA0000298FEF765FB9DF80F30002B01D0FEF742
:105AB00049FB00BF05B05DF804FB00BF008000504B
:105AC00000B585B00190009100230293154BD3F8E7
:105AD000803103F00303012B02D0022B08D00EE02B
:105AE00002AB00211846FFF7D7FE0F23039309E00E
:105AF000FEF7B8F8034602930223039302E0002363
:105B0000039300BF019B002B02D0029A019B1A60F5
:105B1000009B002B02D0009B039A1A6000BF05B0C7
:105B20005DF804FB0080005008B502214FF420709E
:105B3000FEF772FB00BF08BD00B583B002230193DE
:105B40004FF4C070FEF72EFC0346074A934201D87B
:105B50000123019301994FF42070FEF75DFB00BF14
:105B600003B05DF804FB00BF80F0FA0200B585B019
:105B70000190009100230393194BD3F8403203F0B6
:105B80000303032B12D0032B16D8012B02D0022BB8
:105B900006D011E0FEF76CF80390092302930EE0A3
:105BA000FEF76EF803900823029308E0FEF764F80E
:105BB00003900B23029302E00023029300BF019B9A
:105BC000002B02D0019B039A1A60009B002B02D08D
:105BD000009B029A1A6000BF05B05DF804FB00BF8D
:105BE0000080005008B5FEF717F80346002118465C
:105BF000FFF72EFF00BF08BD00B585B001900091F2
:105C000000230393204BD3F8003203F00703013B3A
:105C1000032B25D801A252F823F000BF2D5C010010
:105C2000395C0100455C0100515C0100FEF720F881
:105C300003900923029316E0FEF722F8039008234D
:105C4000029310E0FEF718F803900B2302930AE08A
:105C5000FDF7C4FF03469B0A03930E23029302E061
:105C60000023029300BF019B002B02D0019B039AEB
:105C70001A60009B002B02D0009B029A1A6000BFA2
:105C800005B05DF804FB00BF0080005000B585B092
:105C90000190009100230393114B1B6803F0040350
:105CA000002B06D0FDF79AFF034603930C230293C3
:105CB00005E002AA03AB11461846FFF729FE019B37
:105CC000002B02D0039A019B1A60009B002B02D08C
:105CD000029A009B1A6000BF05B05DF804FB00BF8C
:105CE00010E000E082B0EFF310830093009B01937B
:105CF00072B600BF019B184602B0704782B0019097
:105D0000019B002B01D162B600BF00BF02B07047FB
:105D100084B0EFF311830193019B0393302302932B
:105D2000029B83F3118800BF039B184604B07047A1
:105D300084B00190019B0393039B83F3118800BF00
:105D400000BF04B0704708B5FDF748FF00BF08BDAD
:105D500082B001900091019B1A68009B22FA03F324
:105D600003F00103184602B070470000024B034ADB
:105D70001A6400BF704700BF004009503254FFFF53
:105D8000024B4AF6CD321A6400BF704700400950FA
:105D900008B500BF04210448FFF7DAFF0346002BD3
:105DA000F8D100BF00BF08BD8440005008B5FFF720
:105DB000EFFF044BD3F884309B0903F00303DBB2FD
:105DC000184608BD0040005082B003468DF80730E9
:105DD0009DF80730013B4FF4806202FA03F3184646
:105DE00002B0704700B585B003468DF807309DF8C6
:105DF0000730002B13D12D4B00221A602C4B03F5DA
:105E000080531A464FF4003353662A4B5B68012BCC
:105E100047D1274BD3F80031244A136041E0234B8C
:105E20001B68002B3DD0234B5B68012B39D0204AE7
:105E30001E4B1B68C2F800318020FEF78DFD034623
:105E4000052B28D14FF4C070FEF79CF90390039BFB
:105E5000012B04D102214FF4C070FEF7DDF9154B80
:105E600003F500531A4607231361124B03F58053C1
:105E70001A460123536000BF0E4B1B6903F0010358
:105E8000002BF9D0039B012B0BD101214FF4C070E3
:105E9000FEF7C2F905E0074B03F580531A460123CC
:105EA000536000BF05B05DF804FB00BFBC220020BA
:105EB0000080005000C0015000B583B00190019BEC
:105EC0001A78054B1A700121002000F0AFF800BFCE
:105ED00003B05DF804FB00BFB822002082B001903F
:105EE000064B5B6F23F44072019B5B781B020349F6
:105EF00013434B6700BF02B0704700BF0040005023
:105F000000BF704700BF704700B585B003468DF8ED
:105F100007309DF80730002B02D00020FFF762FF0A
:105F2000144B1B69134A43F00403136103F0D0FBC5
:105F3000FFF7E6FFFFF7D6FE03902AF0E5FF039890
:105F4000FFF7DCFEFFF7DEFF03F0DAFB9DF807301A
:105F5000002B02D00120FFF745FF9DF8073083F0AA
:105F60000103DBB2002B01D0FFF7EDFE00BF05B04F
:105F70005DF804FB00ED00E000B585B003468DF848
:105F800007309DF80730002B02D00020FFF72AFFD2
:105F9000124B1B69114A43F00403136103F098FB91
:105FA000FFF7A0FE03902AF0AFFF0398FFF7A6FECD
:105FB00003F0A6FB9DF80730002B02D00120FFF76D
:105FC00011FF9DF8073083F00103DBB2002B01D0F5
:105FD000FFF7B9FE00BF05B05DF804FB00ED00E07F
:105FE00008B50020FFF7FEFE00BF08BD08B5012080
:105FF000FFF7F8FE00BF08BD82B00190064BDB6ED4
:1060000023F03003019A12791146034A0B43D366F9
:1060100000BF02B0704700BF0040005082B003468E
:106020008DF8073000BF02B07047000000B585B0A2
:1060300001900B468DF80330019B002B03D1FDF737
:10604000A5FD039001E0019B03930D4B1B78002BF2
:106050000AD0039B0B4A934206D89DF80330194699
:10606000012000F011F806E09DF8033019460220E7
:1060700000F00AF800BF00BF05B05DF804FB00BFE8
:10608000B8220020005A620210B586B003460A46C4
:106090008DF8073013468DF80630FFF787FE03466C
:1060A0001A469DF80730934240D0FDF76FFD0590EA
:1060B000059B04939DF80730012B03D1012105981E
:1060C000FFF7D2FAFFF70EFE03901A4B03F50053C9
:1060D0001A464FF0007353669DF807301846FFF7D5
:1060E0009DFF144C9DF807301846FFF76DFE0346E0
:1060F000236702E00F4BD3F884300E4B5B6E03F046
:106100000073002B06D10B4BD3F8843003F020032F
:10611000002BEFD00398FFF7F1FD9DF80730022B1D
:1061200005D100210598FFF79FFA00E000BF06B0F7
:1061300010BD00BF0040005000B585B003468DF88B
:1061400007302F4B03F580531A464FF00043536638
:106150002C4B03F580531A4601235360294B5B6C8B
:1061600003F00103002B14BF012300238DF80F302F
:10617000FFF706FE9DF80730002B1BD1214B9B68D3
:1061800003F001030293029B002B0CD01D4B03F57F
:1061900000531A460123936000BF1A4BDB6A03F0D9
:1061A0000103002BF9D0174B03F500531A460123C6
:1061B000536019E000BF134BDB6A03F00803002BA8
:1061C000F9D1104B03F500531A46202353620D4BAF
:1061D00003F580531A460123936000BF094B5B6AA5
:1061E00003F02003002BF9D09DF80F30002B01D0D5
:1061F000FFF7BCFD23F02FF800BF05B05DF804FBEE
:10620000008000500040095000B585B001902B4B34
:1062100003F580531A464FF000435366284B03F5AD
:1062200080531A4601235360254B5B6C03F0010336
:10623000002B14BF012300238DF80F30FFF7A0FDC2
:10624000019B5B785B001F4A43F00103D3631C4B47
:106250009B6823F07402019B9B781B011343019AF6
:10626000D278002A01D0042200E00022144913430E
:106270008B60019B1B791B02019A92791146104A8F
:106280000B431361019B5B791B02019AD279114682
:106290000B4A0B435361019B1B781846FFF74CFFD9
:1062A0009DF80F30002B01D0FFF760FD22F0D3FFE7
:1062B0000123184605B05DF804FB00BF00800050C4
:1062C000004009500040005082B00190019B1B6CBF
:1062D000184602B0704782B00190009100BF019B48
:1062E000DA6C009B1340002BF9D100BF00BF02B055
:1062F000704700B583B001900091002300220099FF
:10630000019800F03FF900BF03B05DF804FB00B551
:1063100083B001900091009B1B8AB3F5805F03D08E
:10632000009B1B8AB3F5405F00BF009B9B68B3F5E1
:10633000165F03D8009B9B68002B00BF0023002240
:106340000099019800F01EF900BF03B05DF804FB4E
:1063500000B583B00190019800F038FA019B00224B
:10636000DA60019B00229A60019B41F202021A61ED
:10637000019B0022DA61019B00225A61019B0022ED
:106380009A61019B00221A62019B00225A62019BC2
:106390000022DA62019B00229A64019B03F50053FC
:1063A0001A46044B5364019B00229A6200BF03B05B
:1063B0005DF804FB7F370C0100B585B001900B46FA
:1063C0008DF80330002303939DF80330002B03D195
:1063D000019800F0FBF936E0019B03F580531A4663
:1063E000012353609DF8033003F00F03039340F241
:1063F000FF710198FFF76FFF019B039A1A637821E1
:106400000198FFF768FF002303939DF8033003F022
:106410000103DBB2002B03D0039B43F00103039382
:106420009DF8033003F00403DBB2002B03D0039B81
:1064300043F00203039300BF019B1B6C03F00303B3
:10644000039A9A42F8D100BF05B05DF804FB82B010
:10645000019000BF019B1B6C03F08003002BF9D05F
:10646000019B5B6BDBB2184602B0704782B00190B3
:106470000B468DF8033000BF019B1B6C03F04003FB
:10648000002BF9D09DF80320019BDA6300BF02B016
:106490007047000000B587B003900291019200237D
:1064A0008DF81730029B002B07D1039800F05AF8A3
:1064B00003461846FDF776FF0290039B5B68039B3B
:1064C0009B6803F0E003802B1ED0802B20D8602B2C
:1064D00016D0602B1CD8402B0ED0402B18D8002B88
:1064E00002D0202B04D013E010238DF8173010E0D9
:1064F00008238DF817300CE006238DF8173008E0DC
:1065000004238DF8173004E001238DF8173000E0E4
:1065100000BF9DF81730002B1ED0029B5A019DF83A
:106520001730019901FB03F3B2FBF3F30493049BCF
:10653000203B0493049BDB000493049A084B134014
:10654000049301210398FFF7C6FE039B049A9A6205
:1065500001210398FFF7BFFE00BF07B05DF804FB01
:10656000F8FF7F0084B00190019B054A934203D15C
:1065700038230393039B00E00023184604B07047C0
:106580000000035A00B585B0039002910192009378
:10659000039B5B68002B04D040F2FF710398FFF768
:1065A0009AFE0398FFF7D4FE039B1B6923F44C5318
:1065B00023F00303029A527B1343029AD2891343B6
:1065C000029A128A1A43039B1A61039B9B6823F069
:1065D000804323F0E203029A127B1343029A127E55
:1065E0001A43029B5B691A43039B9A60029B9B6858
:1065F000002B05D1039B9B6843F00042039B9A60EC
:10660000029BDB69002B00F09480039B9A68029B3D
:10661000DB691B7A9B051A43039B9A60039B9A686C
:10662000029BDB699B7A5B041A43039B9A60039B82
:106630009A68029BDB699B8803F4C0431A43039B5F
:106640009A60039B9A68029BDB695B789B001A4304
:10665000039B9A60039B9A68029BDB695B7BDB0070
:106660001A43039B9A60039B9A68029BDB699B7B9E
:106670001B011A43039B9A60039B9A68029BDB6988
:106680009B789B021A43039B9A60029BDB699B7970
:106690009A02029BDB69DB795B021A43039BDA6097
:1066A000029BDB691B78012B04D0029BDB691B7802
:1066B000032B05D1039BDB6843F00402039BDA60E4
:1066C000029BDB691B78022B04D0029BDB691B78E1
:1066D000032B03D13A4B01221A6002E0394B01220D
:1066E0001A60029BDB695B7A1A46039B03F58053B1
:1066F0001A62029BDB695B7A002B05D0039BDB6887
:1067000043F40062039BDA60029BDB69DB7A002BB7
:106710000FD0039BDB6843F40042039BDA60029BCB
:10672000DB691B7B284A03F00F0302F58052C2F895
:106730008030019B002B1DD0019B93F82030002B53
:1067400006D0039B03F580531A460123936111E0A1
:10675000039B5B6923F00903019A92F822201343FB
:10676000019A92F82120134343F00103039A02F5A2
:106770008052536105210398FFF71EFE029B9B6820
:10678000002B07D0029B5968029B9B681A4603980E
:10679000FFF780FE029B1B7819460398FFF70CFE5B
:1067A00000BF0398FFF790FD0346DB4303F440531B
:1067B000002BF6D100BF00BF05B05DF804FB00BFA1
:1067C000C0D40350C0E403500080035000B583B030
:1067D0000190019B5B6803F00103002B24D0019B17
:1067E0000A221A6350210198FFF775FD00BF019B33
:1067F0001B6C03F00303002BF9D1019B9A6A019BE8
:106800009A6201210198FFF766FD01E0019B5B6B35
:10681000019B1B6C03F08003002BF7D1019B03F558
:1068200000531A460123536000BF03B05DF804FB18
:1068300000B587B0039002910192FFF753FA0590DB
:10684000039B1A68029BDB431A400199029B0B4091
:106850001A43039B1A600598FFF750FA00BF07B070
:106860005DF804FB82B0034600918DF807309DF877
:106870000730002B0AD09DF80730012B06D09DF879
:106880000730022B02D09DF80730032B08489DF8F3
:1068900007200121009B994013465B0013441B0114
:1068A000034403F500531033196000BF02B0704772
:1068B00000C0035082B0034600918DF807309DF868
:1068C0000730002B0AD09DF80730012B06D09DF829
:1068D0000730022B02D09DF80730032B08489DF8A3
:1068E00007200121009B994013465B0013441B01C4
:1068F000034403F580531033196000BF02B07047A2
:1069000000C0035000B585B0029101920093034688
:106910008DF80F309DF80F30002B0AD09DF80F3006
:10692000012B06D09DF80F30022B02D09DF80F30BE
:10693000032B019B002B0FD0009B002B06D09DF852
:106940000F3002991846FFF7B5FF05E09DF80F30AC
:1069500002991846FFF786FF029B072B19D89DF86E
:106960000F2013465B0013441B01043303F1A043C3
:1069700003F57033029A92000F2101FA02F0029A95
:106980009200019901FA02F201461846FFF750FF02
:106990001AE09DF80F2013465B0013441B010C33D3
:1069A00003F1A04303F57033029A083A92000F21D5
:1069B00001FA02F0029A083A9200019901FA02F2F1
:1069C00001461846FFF734FF019B002B0FD1009BB7
:1069D000002B06D09DF80F3002991846FFF76AFF8A
:1069E00005E09DF80F3002991846FFF73BFF00BF06
:1069F00005B05DF804FB0000094B03F580531A460F
:106A00004FF400339366074B41F67132DA63054B5E
:106A100003F500531A460123D36000BF704700BF3F
:106A200000800050000003500A4B41F67132DA63D7
:106A3000084B03F500531A460123D360054B00228F
:106A4000DA63054B03F500531A464FF4003393669F
:106A500000BF7047000003500080005000BF4FF09F
:106A6000B0435B68002B04D04FF0B0439B6A002B0F
:106A7000F5D100BF704708B5FFF7F0FF4FF0B04306
:106A80000122DA6000BF08BD08B5FFF7E7FF4FF04D
:106A9000B0430222DA6000BF08BD000084B001905C
:106AA0000091009B1B781A46009B5B789B001A4361
:106AB000009BDB785B011A43009B1B791B014FF0A5
:106AC000B04042EA0301019A13465B0013449B0065
:106AD000034430331960009B1B78012B09D1064B0E
:106AE0000393009B9978019B9B00039A13440A46E9
:106AF0001A6000BF04B07047E880035000B583B04F
:106B000003468DF807304FF0B0435B68002B06D189
:106B10009DF8073083F00103DBB2002B20D14FF04A
:106B2000B0435B68002B01D0FFF798FF9DF807305A
:106B3000002B09D04FF0B04303F580531A460123D0
:106B40005360FFF798FF0CE0FFF79EFFFFF786FF0B
:106B50004FF0B04303F500531A460123536000E0A1
:106B600000BF03B05DF804FB00B583B001904FF0A7
:106B7000B0435B68002B01D0FFF770FF4FF0B043CC
:106B800003F500531A4601235360019B5B78002BE9
:106B900001D0012200E00022019B9B78002B01D054
:106BA000022300E000231343019AD278002A01D087
:106BB000042200E000221A43019B1B791B011A43A7
:106BC000019B5B79DB004FF0B04113438B604FF0CA
:106BD000B04303F580531A4601235360019B1B7891
:106BE000002B01D0012300E002234FF0B042D3601C
:106BF00000BF03B05DF804FB014B5B6918467047AA
:106C000000C0075000B585B00190114B03F58053CB
:106C10001A464FF480335366FFF7EEFF0390039B51
:106C20009B09DBB203F03F03DAB2019B9A70039B2E
:106C3000DBB203F03F03DAB2019B5A70039B1B0BDC
:106C4000DAB2019B1A7000BF05B05DF804FB00BF0B
:106C50000080005082B001900B468DF80330019BFC
:106C60000D4A934205D10D4A9DF80330C2F88C318C
:106C700008E0019B0A4A934204D1084A9DF8033078
:106C8000C2F89C31019BDB6D43F08002019BDA6509
:106C900000BF02B0704700BF00C005500080035025
:106CA0000000065000B587B0039002910192029B4C
:106CB000002B04D14FF42070FDF774FB0290029B6F
:106CC0005A1E019B5B00B2FBF3F30593059B1B026D
:106CD0000593039B059ADA6100BF07B05DF804FBDA
:106CE00000B583B001900091019B3D4A934202D0D0
:106CF000019B3C4A934200BF019800F075F8019B4C
:106D000003F580531A4601235360019B9A68009B48
:106D10001B8A43F001039BB21946009B9B7B002B0F
:106D200002D04FF4806300E000230B431A43019B21
:106D30009A60019B9B68009A127D002A02D04FF056
:106D4000005200E000221A43019B9A60009B9B7C4A
:106D5000002B05D0009BDB7C19460198FFF77AFFDA
:106D6000009B1B7B43F48052019BDA60009B5968B7
:106D7000009B9B681A460198FFF794FF009B5B7B82
:106D8000002B02D0019B10225A61009B5B7D002BDF
:106D900005D0019B9B6843F48032019B9A60009B65
:106DA0009B7D002B05D0019B9B6843F40042019B17
:106DB0009A60009BDB7D1B0703F0E042009B1B7E7B
:106DC0001B0503F4E0031A43019B9A65009B1B78A3
:106DD0001A46019B5A6100BF03B05DF804FB00BF77
:106DE00000C005500000065082B00190019B264A69
:106DF000934202D0019B254A934200BF019B03F5B9
:106E000080531A4601235360019B40F6AA625A61DF
:106E1000019B00229A60019B0022DA65019B41F2EE
:106E20000502DA60019B00221A61019B0022DA61EF
:106E3000019B0022DA64019B03F500531A46144BB0
:106E40009364019B00229A65019B0F4A934203D0F1
:106E5000019B0E4A934202D1019B00221A65019BBD
:106E6000094A934203D0019B084A934202D1019BF5
:106E700000225A65019B03F500531A460123536013
:106E800000BF02B0704700BF00C0055000000650B0
:106E9000FFFF010082B001900B468DF8033000BF68
:106EA000019B9B6903F04003002BF9D09DF8032060
:106EB000019BDA6300BF019B9B6903F02003002B59
:106EC000F9D0019B5B6ADBB2184602B07047000044
:106ED00030B583B00190019822F0E3F9064A019B96
:106EE00014461D460FCD0FC495E8030084E8030047
:106EF0000023184603B030BDC02200208CB00190A2
:106F00000B468DF803301346ADF8003000230A938A
:106F1000BDF9003047F6FF72934201D1FF23DEE056
:106F20009DF80330022B01D90023D8E09DF80330EF
:106F3000DB006C4A13440793079B9B780693079BDF
:106F40001B78012B2BD100230993079BDB781A4672
:106F5000069BD31A0A9317E00A9A099BD31A5B0877
:106F60000A9AD31A0393079B5A68039B5B00134446
:106F7000B3F90030BDF900209A4203DA039B013BCC
:106F80000A9301E0039B0993099A0A9B9A42E3D36F
:106F90000A9BDAB2069BDBB21344DBB29FE0079B8D
:106FA0005B680593059B002B01D1002397E0059BAF
:106FB000B3F90030BDF900209A4204DD059B1B881F
:106FC000ADF800300AE0059BB3F90230BDF90020AE
:106FD0009A4203DA059B5B88ADF80030C823ADF810
:106FE00022302823ADF82030059B9B88FF2B0AD147
:106FF0000A9B01330A93059BDB88ADF82230059B81
:107000009B68ADF82030BDF92220BDF90030D21ABE
:10701000BDF9203092FBF3F31A460A9B13440A93FE
:10702000079B5B78013B0A9A9A4203D9079B5B78DE
:10703000013B0A930A9BDB00059A13440433049333
:10704000049B5A68049BB3F902301946BDF900301D
:1070500001FB03F31344002B02DA00230B930BE034
:10706000049B5A68049BB3F902301946BDF90030FD
:1070700001FB03F313440B930B9B03F5FA731A4ABA
:10708000A2FB03239B090B930A9B01330A93079BE3
:107090005B781A460A9B934208D2059A0A9BDB004A
:1070A00013449B881A460B9B9342C3D90A9B013B0E
:1070B000059ADB0013449B881A460B9B934206D922
:1070C0000A9B013B059ADB0013449B880B930B9AA8
:1070D000069B9A4201D2069B0B930B9BDBB2184690
:1070E0000CB07047C0220020D34D621088B00190D0
:1070F0000B468DF8033013468DF802309DF80330AF
:10710000022B01D9604BBBE09DF80330DB005F4AE6
:1071100013440693069B1B78012B26D1069BDB7834
:107120009DF802209A4203D9069BDB788DF8023045
:10713000069B9B789DF80220D31A8DF802309DF8AB
:107140000220069BDB781946069B9B78CB1A9A4255
:1071500002DD00238DF80230069B5A689DF802304C
:107160005B001344B3F900308AE0069B5B6805932B
:10717000059B002B01D1444B82E0059B0433049313
:10718000049B002B01D1404B7AE0069B9B789DF835
:1071900002209A4203D8059BB3F9023070E0069BA7
:1071A000DB789DF802209A4203D3059BB3F90030A7
:1071B00066E000238DF81F30069B5B78013B8DF85D
:1071C0000F30049B1B88FF2B14D101238DF81F3037
:1071D00010E09DF81F300133DB00049A13441A8835
:1071E0009DF802309BB29A420BD39DF81F300133B9
:1071F0008DF81F309DF81F209DF80F309A42E8D37C
:1072000000E000BF9DF802304FF47A7203FB02F2F7
:107210009DF81F30DB0004990B445B68D31A02937E
:107220009DF81F30DB00049A1344B3F90230DA0FE3
:1072300013445B101BB21A46029B13449DF81F2097
:10724000D20004990A44B2F9022093FBF2F30293AC
:10725000059BB3F900301A46029B934203DD059B60
:10726000B3F900300CE0059BB3F902301A46029BDB
:10727000934203DA059BB3F9023001E0029B1BB293
:10728000184608B0704700BF0080FFFFC0220020F2
:1072900008B50448FFF71CFE012022F01DF800BFCE
:1072A00008BD00BFF8280400014B1846704700BF16
:1072B000B015002000B587B001AB00221A605A60FB
:1072C0009A60DA601A6102238DF804300B4B029346
:1072D00002238DF80D3004238DF80E3002238DF833
:1072E000133005238DF8143001AB19464FF0FF30F1
:1072F00022F05AF800BF07B05DF804FB006A1800DE
:1073000000B583B0074A6B4692E8030083E80300A8
:107310006B461846FEF778FF0023184603B05DF869
:1073200004FB00BF1029040000B583B00A4B5B6F5B
:10733000094A43F0010353676B4600221A601A7131
:1073400000238DF804306B461846FEF755FE0023E7
:10735000184603B05DF804FB0040005030B58DB016
:107360002B4B01AC1D460FCD0FC40FCD0FC495E8BC
:10737000030084E80300002308934FF0FF330B93CE
:10738000244BD3F84C3103F40023002B04D1214BC0
:10739000D3F85031DBB20B930B9BB3F1FF3F08D115
:1073A0001D4B1B884FF6FF72934202D01A4B1B886D
:1073B0000B930B9BB3F1FF3F01D178230B930B9BF6
:1073C000B3F1FF3F18D00B9BDBB28DF81D30FEF7F9
:1073D00067F802460B9B13440B930B9B002B02DABE
:1073E00000230B9304E00B9BFF2B01DDFF230B938A
:1073F0000B9BDBB28DF81C300848FCF719FC01AB85
:107400001846FDF755FF002318460DB030BD00BFEC
:10741000182904000080E00F0001E00F00F049028D
:1074200008B50120FEF7B8F80023184608BD000093
:1074300030B587B00C4B01AC1D460FCD0FC42B6887
:1074400023600023039325238DF805300423029342
:1074500001AB1846FEF72CF86420FEF78FF80023E6
:10746000184607B030BD00BF4029040082B0034673
:1074700000918DF807309DF90730002B0ADB009B47
:10748000DAB20C499DF907301201D2B20B4483F8ED
:1074900000230BE0009BDAB207499DF8073003F0A8
:1074A0000F03043B1201D2B20B441A7600BF02B0A4
:1074B000704700BF00E100E000ED00E000B583B0E0
:1074C000FB238DF807300CE09DF9073005211846A5
:1074D000FFF7CCFF9DF90730DBB20133DBB28DF84B
:1074E00007309DF907303F2BEEDD0023184603B02F
:1074F0005DF804FB08B500F01FF900BF08BD0000EF
:1075000000B583B002F0FCF90090009B002B01D085
:10751000009B2CE002F09CFB03464FF4167202FB2A
:1075200003F303F5742303F23F23134AA2FB03235F
:107530009B0C124A136000238DF8073012E09DF86F
:1075400007300E4A12680E4941F823200D4B1A6885
:107550000A4B1B6813440B4A13609DF80730013334
:107560008DF807309DF80730092BE8D9002318461D
:1075700003B05DF804FB00BF83DE1B43D82200206C
:10758000E02200200C23002008B5054B01221A70D0
:1075900002F04EFB0346034A136000BF08BD00BF64
:1075A000142300201023002008B5294B1B7883F0FA
:1075B0000103DBB2002B49D102F03AFB0246254B16
:1075C0001B68D31A244A1360234B1B68002B02D07C
:1075D000214B1B6800E001231F4A13601F4B1B68EF
:1075E0001F4A127811461F4A52F8212011461A4AA2
:1075F00012688A1A9B1A194A1360194B1B7819468C
:10760000154B1B68174A42F82130144B1B6809338D
:10761000154AA2FB0323DB08144A1360104B1B78A6
:107620000133DAB20E4B1A700D4B1A780E4BA3FBD6
:107630000213D9080B469B000B445B00D31ADAB245
:10764000074B1A70024B00221A7000E000BF08BD01
:107650001423002010230020DC2200200C23002013
:1076600008230020E0220020CDCCCCCCD822002062
:10767000014B1B6818467047D822002082B0034691
:107680008DF807309DF90730002B0CDB9DF8073093
:1076900003F01F0205499DF907305B09012000FA3C
:1076A00002F241F8232000BF02B0704700E100E081
:1076B00082B003468DF807309DF90730002B0DDBB3
:1076C0009DF8073003F01F0206499DF907305B095A
:1076D000012000FA02F2603341F8232000BF02B01B
:1076E000704700BF00E100E082B0034600918DF8D2
:1076F00007309DF90730002B0ADB009BDAB20C49FA
:107700009DF907301201D2B20B4483F800230BE03D
:10771000009BDAB207499DF8073003F00F03043BE2
:107720001201D2B20B441A7600BF02B0704700BFFC
:1077300000E100E000ED00E008B502212C20FFF799
:10774000D3FF104B03F580531A464FF400235366C2
:107750000D4B03F500531A460C4B53670A4B03F5C8
:1077600000531A46094B13672C20FFF7A1FF2C206A
:10777000FFF784FF044B03F580531A46034B53670E
:1077800000BF08BD0080005000C00050010000A0F4
:1077900084B003468DF8073000238DF80F30144B6A
:1077A0009B6D03F00103002B08D0124B1B7883F074
:1077B0000103DBB2002B01D0012300E000238DF890
:1077C0000F309DF80F3003F001038DF80F309DF856
:1077D0000F3083F00103DBB2002B03D09DF807309C
:1077E000002BDCD19DF80F30184604B0704700BF65
:1077F00000C000501523002008B500F003F800BFBA
:1078000008BD000000B583B0164B1B6F0193019BB0
:1078100003F00103002B0AD0124A019B03F001037D
:1078200002F500521367FFF7BFFE01F0ADFD019BAB
:1078300003F00053002B06D00A4A019B03F00053CB
:1078400002F500521367019B002B06DA054A019BE3
:1078500003F0004302F50052136700BF03B05DF868
:1078600004FB00BF00C0005000B585B00190FEF7DA
:1078700039FA0390054A019B13600398FEF73EFA1C
:107880000023184605B05DF804FB00BF1823002054
:1078900000B583B000230193FEF724FA0090054B56
:1078A0001B6801930098FEF729FA019B184603B064
:1078B0005DF804FB1823002000B585B00390029109
:1078C0000192039B002B02D1FFF7E2FF0390039B81
:1078D000002B0CD0039B5B68002B08D0039B5B68DC
:1078E000039A1068019A02999847034600E02323FF
:1078F000184605B05DF804FB10B586B00390029100
:107900000192009304AB0593039B002B02D1FFF778
:10791000BFFF0390009B002B01D0009B0593039BAE
:10792000002B0DD0039B9B68002B09D0039B9C6808
:10793000039B1868059B019A0299A047034600E043
:107940002323184606B010BD0EB400B588B00190D0
:10795000019B0693002305930AAB0393069B002B20
:1079600005D1FFF795FF0790079B069309E0FFF706
:107970008FFF0790079A069B9A4202D00698FFF75E
:1079800073FF0399099828F007FC0490079A069B57
:107990009A4202D00798FFF767FF049B002B01DC97
:1079A00037230593059B184608B05DF804EB03B038
:1079B000704782B00190019B1B6C184602B0704763
:1079C00082B001900091019B03F500531A46009B81
:1079D000536400BF02B0704782B001900091019BD8
:1079E00003F500531A46009B936400BF02B0704732
:1079F00082B001900091019B03F580531A46009BD1
:107A0000936400BF02B0704784B00190019B9B6CEF
:107A10000393019B5A6C039B1340184604B07047B4
:107A200000B591B009900891079206930AAB002225
:107A30001A605A609A60DA6000238DF83F300023A4
:107A40008DF83E3001238DF83D30069B1B79002BCD
:107A500003D0069B1B798DF82830079B0AAADA61B0
:107A6000069B5B79002B03D001238DF83D3002E0AB
:107A700002238DF83D3012999DF83D3004939DF816
:107A80003D3003939B4B02939B4B01939B4B009385
:107A90009B4B089A099800F03FFB0E900E9B002B21
:107AA00001D00E9B21E1069B9A68129B5A63069BAC
:107AB0009A69129B5A64069B1A7D129B83F8402098
:107AC000069B1A69129BDA63069B1A7B129B83F84A
:107AD0003820069B1A6A129BDA64069B1A7F129B57
